{
  "_format": "hh-sol-artifact-1",
  "contractName": "BuyMeACoffee",
  "sourceName": "contracts/BuyMeACoffee.sol",
  "abi": [
    {
      "inputs": [],
      "stateMutability": "nonpayable",
      "type": "constructor"
    },
    {
      "anonymous": false,
      "inputs": [
        {
          "indexed": false,
          "internalType": "string",
          "name": "name",
          "type": "string"
        },
        {
          "indexed": false,
          "internalType": "string",
          "name": "message",
          "type": "string"
        },
        {
          "indexed": true,
          "internalType": "address",
          "name": "senderAddress",
          "type": "address"
        },
        {
          "indexed": false,
          "internalType": "uint256",
          "name": "timestamp",
          "type": "uint256"
        },
        {
          "indexed": false,
          "internalType": "uint256",
          "name": "amount",
          "type": "uint256"
        }
      ],
      "name": "showMemo",
      "type": "event"
    },
    {
      "inputs": [
        {
          "internalType": "string",
          "name": "_name",
          "type": "string"
        },
        {
          "internalType": "string",
          "name": "_message",
          "type": "string"
        }
      ],
      "name": "buyCoffee",
      "outputs": [],
      "stateMutability": "payable",
      "type": "function"
    },
    {
      "inputs": [],
      "name": "getMemos",
      "outputs": [
        {
          "components": [
            {
              "internalType": "string",
              "name": "name",
              "type": "string"
            },
            {
              "internalType": "string",
              "name": "message",
              "type": "string"
            },
            {
              "internalType": "address",
              "name": "senderAddress",
              "type": "address"
            },
            {
              "internalType": "uint256",
              "name": "timestamp",
              "type": "uint256"
            },
            {
              "internalType": "uint256",
              "name": "amount",
              "type": "uint256"
            }
          ],
          "internalType": "struct BuyMeACoffee.Memo[]",
          "name": "",
          "type": "tuple[]"
        }
      ],
      "stateMutability": "view",
      "type": "function"
    },
    {
      "inputs": [],
      "name": "owner",
      "outputs": [
        {
          "internalType": "address payable",
          "name": "",
          "type": "address"
        }
      ],
      "stateMutability": "view",
      "type": "function"
    },
    {
      "inputs": [],
      "name": "withdrawTips",
      "outputs": [],
      "stateMutability": "nonpayable",
      "type": "function"
    },
    {
      "stateMutability": "payable",
      "type": "receive"
    }
  ],
  "bytecode": "0x608060405234801561001057600080fd5b50336000806101000a81548173ffffffffffffffffffffffffffffffffffffffff021916908373ffffffffffffffffffffffffffffffffffffffff160217905550610b59806100606000396000f3fe6080604052600436106100435760003560e01c8063204206e11461004f5780633aaa74b21461006b578063865c5172146100825780638da5cb5b146100ad5761004a565b3661004a57005b600080fd5b61006960048036038101906100649190610692565b6100d8565b005b34801561007757600080fd5b50610080610306565b005b34801561008e57600080fd5b5061009761036f565b6040516100a49190610945565b60405180910390f35b3480156100b957600080fd5b506100c261055c565b6040516100cf9190610988565b60405180910390f35b662386f26fc100003411610121576040517f08c379a000000000000000000000000000000000000000000000000000000000815260040161011890610a00565b60405180910390fd5b60016040518060a0016040528086868080601f016020809104026020016040519081016040528093929190818152602001838380828437600081840152601f19601f82011690508083019250505050505050815260200184848080601f016020809104026020016040519081016040528093929190818152602001838380828437600081840152601f19601f8201169050808301925050505050505081526020013373ffffffffffffffffffffffffffffffffffffffff168152602001428152602001348152509080600181540180825580915050600190039060005260206000209060050201600090919091909150600082015181600001908051906020019061022d929190610580565b50602082015181600101908051906020019061024a929190610580565b5060408201518160020160006101000a81548173ffffffffffffffffffffffffffffffffffffffff021916908373ffffffffffffffffffffffffffffffffffffffff160217905550606082015181600301556080820151816004015550503373ffffffffffffffffffffffffffffffffffffffff167f3456dd2ef12a41121ccf9a9ae0f5ec9699f1b383cf10d4aa8458c47bb21704148585858542346040516102f896959493929190610a6b565b60405180910390a250505050565b60008054906101000a900473ffffffffffffffffffffffffffffffffffffffff1673ffffffffffffffffffffffffffffffffffffffff166108fc479081150290604051600060405180830381858888f1935050505015801561036c573d6000803e3d6000fd5b50565b60606001805480602002602001604051908101604052809291908181526020016000905b8282101561055357838290600052602060002090600502016040518060a00160405290816000820180546103c690610af1565b80601f01602080910402602001604051908101604052809291908181526020018280546103f290610af1565b801561043f5780601f106104145761010080835404028352916020019161043f565b820191906000526020600020905b81548152906001019060200180831161042257829003601f168201915b5050505050815260200160018201805461045890610af1565b80601f016020809104026020016040519081016040528092919081815260200182805461048490610af1565b80156104d15780601f106104a6576101008083540402835291602001916104d1565b820191906000526020600020905b8154815290600101906020018083116104b457829003601f168201915b505050505081526020016002820160009054906101000a900473ffffffffffffffffffffffffffffffffffffffff1673ffffffffffffffffffffffffffffffffffffffff1673ffffffffffffffffffffffffffffffffffffffff1681526020016003820154815260200160048201548152505081526020019060010190610393565b50505050905090565b60008054906101000a900473ffffffffffffffffffffffffffffffffffffffff1681565b82805461058c90610af1565b90600052602060002090601f0160209004810192826105ae57600085556105f5565b82601f106105c757805160ff19168380011785556105f5565b828001600101855582156105f5579182015b828111156105f45782518255916020019190600101906105d9565b5b5090506106029190610606565b5090565b5b8082111561061f576000816000905550600101610607565b5090565b600080fd5b600080fd5b600080fd5b600080fd5b600080fd5b60008083601f8401126106525761065161062d565b5b8235905067ffffffffffffffff81111561066f5761066e610632565b5b60208301915083600182028301111561068b5761068a610637565b5b9250929050565b600080600080604085870312156106ac576106ab610623565b5b600085013567ffffffffffffffff8111156106ca576106c9610628565b5b6106d68782880161063c565b9450945050602085013567ffffffffffffffff8111156106f9576106f8610628565b5b6107058782880161063c565b925092505092959194509250565b600081519050919050565b600082825260208201905092915050565b6000819050602082019050919050565b600081519050919050565b600082825260208201905092915050565b60005b8381101561077957808201518184015260208101905061075e565b83811115610788576000848401525b50505050565b6000601f19601f8301169050919050565b60006107aa8261073f565b6107b4818561074a565b93506107c481856020860161075b565b6107cd8161078e565b840191505092915050565b600073ffffffffffffffffffffffffffffffffffffffff82169050919050565b6000610803826107d8565b9050919050565b610813816107f8565b82525050565b6000819050919050565b61082c81610819565b82525050565b600060a083016000830151848203600086015261084f828261079f565b91505060208301518482036020860152610869828261079f565b915050604083015161087e604086018261080a565b5060608301516108916060860182610823565b5060808301516108a46080860182610823565b508091505092915050565b60006108bb8383610832565b905092915050565b6000602082019050919050565b60006108db82610713565b6108e5818561071e565b9350836020820285016108f78561072f565b8060005b85811015610933578484038952815161091485826108af565b945061091f836108c3565b925060208a019950506001810190506108fb565b50829750879550505050505092915050565b6000602082019050818103600083015261095f81846108d0565b905092915050565b6000610972826107d8565b9050919050565b61098281610967565b82525050565b600060208201905061099d6000830184610979565b92915050565b600082825260208201905092915050565b7f53656e6420616e797468696e672061626f766520302e30312045544800000000600082015250565b60006109ea601c836109a3565b91506109f5826109b4565b602082019050919050565b60006020820190508181036000830152610a19816109dd565b9050919050565b82818337600083830152505050565b6000610a3b83856109a3565b9350610a48838584610a20565b610a518361078e565b840190509392505050565b610a6581610819565b82525050565b60006080820190508181036000830152610a8681888a610a2f565b90508181036020830152610a9b818688610a2f565b9050610aaa6040830185610a5c565b610ab76060830184610a5c565b979650505050505050565b7f4e487b7100000000000000000000000000000000000000000000000000000000600052602260045260246000fd5b60006002820490506001821680610b0957607f821691505b60208210811415610b1d57610b1c610ac2565b5b5091905056fea2646970667358221220da6af3b39e84f35599010ad38a2eb96a07a9c4a35b1de3c554283e93654b033b64736f6c63430008090033",
  "linkReferences": {},
  "deployedLinkReferences": {}
}